{"abi":[{"type":"function","name":"MAX_COLLECTION_SIZE","inputs":[],"outputs":[{"name":"","type":"uint16","internalType":"uint16"}],"stateMutability":"view"},{"type":"function","name":"MAX_ROYALTY_BPS","inputs":[],"outputs":[{"name":"","type":"uint256","internalType":"uint256"}],"stateMutability":"view"},{"type":"function","name":"UPGRADE_INTERFACE_VERSION","inputs":[],"outputs":[{"name":"","type":"string","internalType":"string"}],"stateMutability":"view"},{"type":"function","name":"_nextCollectionTokenId","inputs":[{"name":"","type":"uint256","internalType":"uint256"}],"outputs":[{"name":"","type":"uint256","internalType":"uint256"}],"stateMutability":"view"},{"type":"function","name":"approve","inputs":[{"name":"to","type":"address","internalType":"address"},{"name":"tokenId","type":"uint256","internalType":"uint256"}],"outputs":[],"stateMutability":"nonpayable"},{"type":"function","name":"balanceOf","inputs":[{"name":"owner","type":"address","internalType":"address"}],"outputs":[{"name":"","type":"uint256","internalType":"uint256"}],"stateMutability":"view"},{"type":"function","name":"collections","inputs":[{"name":"","type":"uint256","internalType":"uint256"}],"outputs":[{"name":"creator","type":"address","internalType":"address"},{"name":"name","type":"string","internalType":"string"},{"name":"symbol","type":"string","internalType":"string"},{"name":"image","type":"string","internalType":"string"},{"name":"maxSupply","type":"uint16","internalType":"uint16"},{"name":"currentSupply","type":"uint16","internalType":"uint16"}],"stateMutability":"view"},{"type":"function","name":"createCollection","inputs":[{"name":"name","type":"string","internalType":"string"},{"name":"symbol","type":"string","internalType":"string"},{"name":"image","type":"string","internalType":"string"},{"name":"maxSupply","type":"uint16","internalType":"uint16"}],"outputs":[{"name":"","type":"uint256","internalType":"uint256"}],"stateMutability":"nonpayable"},{"type":"function","name":"getApproved","inputs":[{"name":"tokenId","type":"uint256","internalType":"uint256"}],"outputs":[{"name":"","type":"address","internalType":"address"}],"stateMutability":"view"},{"type":"function","name":"getCollections","inputs":[],"outputs":[{"name":"collectionIds","type":"uint256[]","internalType":"uint256[]"},{"name":"creators","type":"address[]","internalType":"address[]"},{"name":"names","type":"string[]","internalType":"string[]"},{"name":"symbols","type":"string[]","internalType":"string[]"},{"name":"images","type":"string[]","internalType":"string[]"},{"name":"maxSupplies","type":"uint16[]","internalType":"uint16[]"},{"name":"currentSupplies","type":"uint16[]","internalType":"uint16[]"}],"stateMutability":"view"},{"type":"function","name":"getUsedSocialMediaIds","inputs":[{"name":"socialMediaId","type":"string","internalType":"string"}],"outputs":[{"name":"","type":"bool","internalType":"bool"}],"stateMutability":"view"},{"type":"function","name":"governanceContract","inputs":[],"outputs":[{"name":"","type":"address","internalType":"contract IVertixGovernance"}],"stateMutability":"view"},{"type":"function","name":"initialize","inputs":[{"name":"_governanceContract","type":"address","internalType":"address"}],"outputs":[],"stateMutability":"nonpayable"},{"type":"function","name":"isApprovedForAll","inputs":[{"name":"owner","type":"address","internalType":"address"},{"name":"operator","type":"address","internalType":"address"}],"outputs":[{"name":"","type":"bool","internalType":"bool"}],"stateMutability":"view"},{"type":"function","name":"metadataHashes","inputs":[{"name":"","type":"uint256","internalType":"uint256"}],"outputs":[{"name":"","type":"bytes32","internalType":"bytes32"}],"stateMutability":"view"},{"type":"function","name":"mintSingleNft","inputs":[{"name":"to","type":"address","internalType":"address"},{"name":"uri","type":"string","internalType":"string"},{"name":"metadataHash","type":"bytes32","internalType":"bytes32"},{"name":"royaltyBps","type":"uint96","internalType":"uint96"}],"outputs":[],"stateMutability":"nonpayable"},{"type":"function","name":"mintSocialMediaNft","inputs":[{"name":"to","type":"address","internalType":"address"},{"name":"socialMediaId","type":"string","internalType":"string"},{"name":"uri","type":"string","internalType":"string"},{"name":"metadataHash","type":"bytes32","internalType":"bytes32"},{"name":"royaltyBps","type":"uint96","internalType":"uint96"},{"name":"signature","type":"bytes","internalType":"bytes"}],"outputs":[],"stateMutability":"nonpayable"},{"type":"function","name":"mintToCollection","inputs":[{"name":"to","type":"address","internalType":"address"},{"name":"collectionId","type":"uint256","internalType":"uint256"},{"name":"uri","type":"string","internalType":"string"},{"name":"metadataHash","type":"bytes32","internalType":"bytes32"},{"name":"royaltyBps","type":"uint96","internalType":"uint96"}],"outputs":[],"stateMutability":"nonpayable"},{"type":"function","name":"name","inputs":[],"outputs":[{"name":"","type":"string","internalType":"string"}],"stateMutability":"view"},{"type":"function","name":"owner","inputs":[],"outputs":[{"name":"","type":"address","internalType":"address"}],"stateMutability":"view"},{"type":"function","name":"ownerOf","inputs":[{"name":"tokenId","type":"uint256","internalType":"uint256"}],"outputs":[{"name":"","type":"address","internalType":"address"}],"stateMutability":"view"},{"type":"function","name":"proxiableUUID","inputs":[],"outputs":[{"name":"","type":"bytes32","internalType":"bytes32"}],"stateMutability":"view"},{"type":"function","name":"renounceOwnership","inputs":[],"outputs":[],"stateMutability":"nonpayable"},{"type":"function","name":"royaltyInfo","inputs":[{"name":"tokenId","type":"uint256","internalType":"uint256"},{"name":"salePrice","type":"uint256","internalType":"uint256"}],"outputs":[{"name":"receiver","type":"address","internalType":"address"},{"name":"amount","type":"uint256","internalType":"uint256"}],"stateMutability":"view"},{"type":"function","name":"safeTransferFrom","inputs":[{"name":"from","type":"address","internalType":"address"},{"name":"to","type":"address","internalType":"address"},{"name":"tokenId","type":"uint256","internalType":"uint256"}],"outputs":[],"stateMutability":"nonpayable"},{"type":"function","name":"safeTransferFrom","inputs":[{"name":"from","type":"address","internalType":"address"},{"name":"to","type":"address","internalType":"address"},{"name":"tokenId","type":"uint256","internalType":"uint256"},{"name":"data","type":"bytes","internalType":"bytes"}],"outputs":[],"stateMutability":"nonpayable"},{"type":"function","name":"setApprovalForAll","inputs":[{"name":"operator","type":"address","internalType":"address"},{"name":"approved","type":"bool","internalType":"bool"}],"outputs":[],"stateMutability":"nonpayable"},{"type":"function","name":"supportsInterface","inputs":[{"name":"interfaceId","type":"bytes4","internalType":"bytes4"}],"outputs":[{"name":"","type":"bool","internalType":"bool"}],"stateMutability":"view"},{"type":"function","name":"symbol","inputs":[],"outputs":[{"name":"","type":"string","internalType":"string"}],"stateMutability":"view"},{"type":"function","name":"tokenToCollection","inputs":[{"name":"","type":"uint256","internalType":"uint256"}],"outputs":[{"name":"","type":"uint256","internalType":"uint256"}],"stateMutability":"view"},{"type":"function","name":"tokenURI","inputs":[{"name":"tokenId","type":"uint256","internalType":"uint256"}],"outputs":[{"name":"","type":"string","internalType":"string"}],"stateMutability":"view"},{"type":"function","name":"transferFrom","inputs":[{"name":"from","type":"address","internalType":"address"},{"name":"to","type":"address","internalType":"address"},{"name":"tokenId","type":"uint256","internalType":"uint256"}],"outputs":[],"stateMutability":"nonpayable"},{"type":"function","name":"transferOwnership","inputs":[{"name":"newOwner","type":"address","internalType":"address"}],"outputs":[],"stateMutability":"nonpayable"},{"type":"function","name":"upgradeToAndCall","inputs":[{"name":"newImplementation","type":"address","internalType":"address"},{"name":"data","type":"bytes","internalType":"bytes"}],"outputs":[],"stateMutability":"payable"},{"type":"function","name":"usedSocialMediaIds","inputs":[{"name":"","type":"string","internalType":"string"}],"outputs":[{"name":"","type":"bool","internalType":"bool"}],"stateMutability":"view"},{"type":"event","name":"Approval","inputs":[{"name":"owner","type":"address","indexed":true,"internalType":"address"},{"name":"approved","type":"address","indexed":true,"internalType":"address"},{"name":"tokenId","type":"uint256","indexed":true,"internalType":"uint256"}],"anonymous":false},{"type":"event","name":"ApprovalForAll","inputs":[{"name":"owner","type":"address","indexed":true,"internalType":"address"},{"name":"operator","type":"address","indexed":true,"internalType":"address"},{"name":"approved","type":"bool","indexed":false,"internalType":"bool"}],"anonymous":false},{"type":"event","name":"BatchMetadataUpdate","inputs":[{"name":"_fromTokenId","type":"uint256","indexed":false,"internalType":"uint256"},{"name":"_toTokenId","type":"uint256","indexed":false,"internalType":"uint256"}],"anonymous":false},{"type":"event","name":"CollectionCreated","inputs":[{"name":"collectionId","type":"uint256","indexed":true,"internalType":"uint256"},{"name":"creator","type":"address","indexed":true,"internalType":"address"},{"name":"name","type":"string","indexed":false,"internalType":"string"},{"name":"symbol","type":"string","indexed":false,"internalType":"string"},{"name":"image","type":"string","indexed":false,"internalType":"string"},{"name":"maxSupply","type":"uint256","indexed":false,"internalType":"uint256"}],"anonymous":false},{"type":"event","name":"Initialized","inputs":[{"name":"version","type":"uint64","indexed":false,"internalType":"uint64"}],"anonymous":false},{"type":"event","name":"MetadataUpdate","inputs":[{"name":"_tokenId","type":"uint256","indexed":false,"internalType":"uint256"}],"anonymous":false},{"type":"event","name":"NFTMinted","inputs":[{"name":"to","type":"address","indexed":true,"internalType":"address"},{"name":"tokenId","type":"uint256","indexed":true,"internalType":"uint256"},{"name":"collectionId","type":"uint256","indexed":true,"internalType":"uint256"},{"name":"uri","type":"string","indexed":false,"internalType":"string"},{"name":"metadataHash","type":"bytes32","indexed":false,"internalType":"bytes32"},{"name":"royaltyRecipient","type":"address","indexed":false,"internalType":"address"},{"name":"royaltyBps","type":"uint96","indexed":false,"internalType":"uint96"}],"anonymous":false},{"type":"event","name":"OwnershipTransferred","inputs":[{"name":"previousOwner","type":"address","indexed":true,"internalType":"address"},{"name":"newOwner","type":"address","indexed":true,"internalType":"address"}],"anonymous":false},{"type":"event","name":"SocialMediaNFTMinted","inputs":[{"name":"to","type":"address","indexed":true,"internalType":"address"},{"name":"tokenId","type":"uint256","indexed":true,"internalType":"uint256"},{"name":"socialMediaId","type":"string","indexed":false,"internalType":"string"},{"name":"uri","type":"string","indexed":false,"internalType":"string"},{"name":"metadataHash","type":"bytes32","indexed":false,"internalType":"bytes32"},{"name":"royaltyRecipient","type":"address","indexed":true,"internalType":"address"},{"name":"royaltyBps","type":"uint96","indexed":false,"internalType":"uint96"}],"anonymous":false},{"type":"event","name":"Transfer","inputs":[{"name":"from","type":"address","indexed":true,"internalType":"address"},{"name":"to","type":"address","indexed":true,"internalType":"address"},{"name":"tokenId","type":"uint256","indexed":true,"internalType":"uint256"}],"anonymous":false},{"type":"event","name":"Upgraded","inputs":[{"name":"implementation","type":"address","indexed":true,"internalType":"address"}],"anonymous":false},{"type":"error","name":"AddressEmptyCode","inputs":[{"name":"target","type":"address","internalType":"address"}]},{"type":"error","name":"ECDSAInvalidSignature","inputs":[]},{"type":"error","name":"ECDSAInvalidSignatureLength","inputs":[{"name":"length","type":"uint256","internalType":"uint256"}]},{"type":"error","name":"ECDSAInvalidSignatureS","inputs":[{"name":"s","type":"bytes32","internalType":"bytes32"}]},{"type":"error","name":"ERC1967InvalidImplementation","inputs":[{"name":"implementation","type":"address","internalType":"address"}]},{"type":"error","name":"ERC1967NonPayable","inputs":[]},{"type":"error","name":"ERC2981InvalidDefaultRoyalty","inputs":[{"name":"numerator","type":"uint256","internalType":"uint256"},{"name":"denominator","type":"uint256","internalType":"uint256"}]},{"type":"error","name":"ERC2981InvalidDefaultRoyaltyReceiver","inputs":[{"name":"receiver","type":"address","internalType":"address"}]},{"type":"error","name":"ERC2981InvalidTokenRoyalty","inputs":[{"name":"tokenId","type":"uint256","internalType":"uint256"},{"name":"numerator","type":"uint256","internalType":"uint256"},{"name":"denominator","type":"uint256","internalType":"uint256"}]},{"type":"error","name":"ERC2981InvalidTokenRoyaltyReceiver","inputs":[{"name":"tokenId","type":"uint256","internalType":"uint256"},{"name":"receiver","type":"address","internalType":"address"}]},{"type":"error","name":"ERC721IncorrectOwner","inputs":[{"name":"sender","type":"address","internalType":"address"},{"name":"tokenId","type":"uint256","internalType":"uint256"},{"name":"owner","type":"address","internalType":"address"}]},{"type":"error","name":"ERC721InsufficientApproval","inputs":[{"name":"operator","type":"address","internalType":"address"},{"name":"tokenId","type":"uint256","internalType":"uint256"}]},{"type":"error","name":"ERC721InvalidApprover","inputs":[{"name":"approver","type":"address","internalType":"address"}]},{"type":"error","name":"ERC721InvalidOperator","inputs":[{"name":"operator","type":"address","internalType":"address"}]},{"type":"error","name":"ERC721InvalidOwner","inputs":[{"name":"owner","type":"address","internalType":"address"}]},{"type":"error","name":"ERC721InvalidReceiver","inputs":[{"name":"receiver","type":"address","internalType":"address"}]},{"type":"error","name":"ERC721InvalidSender","inputs":[{"name":"sender","type":"address","internalType":"address"}]},{"type":"error","name":"ERC721NonexistentToken","inputs":[{"name":"tokenId","type":"uint256","internalType":"uint256"}]},{"type":"error","name":"FailedCall","inputs":[]},{"type":"error","name":"InvalidInitialization","inputs":[]},{"type":"error","name":"NotInitializing","inputs":[]},{"type":"error","name":"OwnableInvalidOwner","inputs":[{"name":"owner","type":"address","internalType":"address"}]},{"type":"error","name":"OwnableUnauthorizedAccount","inputs":[{"name":"account","type":"address","internalType":"address"}]},{"type":"error","name":"UUPSUnauthorizedCallContext","inputs":[]},{"type":"error","name":"UUPSUnsupportedProxiableUUID","inputs":[{"name":"slot","type":"bytes32","internalType":"bytes32"}]},{"type":"error","name":"VertixNFT__EmptyString","inputs":[]},{"type":"error","name":"VertixNFT__ExceedsMaxCollectionSize","inputs":[]},{"type":"error","name":"VertixNFT__InvalidCollection","inputs":[]},{"type":"error","name":"VertixNFT__InvalidRoyaltyPercentage","inputs":[]},{"type":"error","name":"VertixNFT__InvalidSignature","inputs":[]},{"type":"error","name":"VertixNFT__InvalidToken","inputs":[]},{"type":"error","name":"VertixNFT__MaxSupplyReached","inputs":[]},{"type":"error","name":"VertixNFT__NotCollectionCreator","inputs":[]},{"type":"error","name":"VertixNFT__SocialMediaIdAlreadyUsed","inputs":[]},{"type":"error","name":"VertixNFT__ZeroSupply","inputs":[]}],"bytecode":{"object":"0x60a060405234603957600e6047565b6014603d565b615c566100948239608051818181614099015281816140fe01526142a50152615c5690f35b6043565b60405190565b5f80fd5b604d6087565b565b60018060a01b031690565b90565b606c6068607092604f565b605a565b604f565b90565b607a90605d565b90565b6084906073565b90565b608e30607d565b60805256fe60806040526004361015610013575b611afc565b61001d5f3561024c565b806301ffc9a71461024757806306fdde0314610242578063081812fc1461023d578063095ea7b3146102385780630b7aa38b14610233578063194ac0331461022e578063195f78ae1461022957806323b872dd146102245780632a55205a1461021f5780632b9681a21461021a5780633dca40e6146102155780634035cc6c1461021057806342842e0e1461020b57806346e63586146102065780634f1ef2861461020157806352d1902d146101fc5780636352211e146101f757806370a08231146101f2578063715018a6146101ed57806371741471146101e85780638da5cb5b146101e357806395d89b41146101de57806396c388b8146101d9578063a22cb465146101d4578063a2ffcfbd146101cf578063ad3cb1cc146101ca578063b172b222146101c5578063b88d4fde146101c0578063c4d66de8146101bb578063c87b56dd146101b6578063e985e9c5146101b1578063f2fde38b146101ac578063f9fd78c8146101a7578063fa370884146101a25763fdbda0ec0361000e57611ac0565b611831565b61179a565b61170f565b6116d9565b611677565b611644565b61160d565b611579565b6114b0565b611403565b6113b6565b61132c565b611287565b611252565b61121c565b6111b3565b61117e565b61112b565b6110f6565b6110aa565b610fad565b610c96565b610c61565b610bd5565b610b68565b610953565b6108cf565b610860565b6107a8565b610623565b6104c3565b610439565b610387565b6102d8565b60e01c90565b60405190565b5f80fd5b5f80fd5b5f80fd5b63ffffffff60e01b1690565b61027981610264565b0361028057565b5f80fd5b9050359061029182610270565b565b906020828203126102ac576102a9915f01610284565b90565b61025c565b151590565b6102bf906102b1565b9052565b91906102d6905f602085019401906102b6565b565b34610308576103046102f36102ee366004610293565b611b04565b6102fb610252565b918291826102c3565b0390f35b610258565b5f91031261031757565b61025c565b5190565b60209181520190565b90825f9392825e0152565b601f801991011690565b61035d61036660209361036b936103548161031c565b93848093610320565b95869101610329565b610334565b0190565b6103849160208201915f81840391015261033e565b90565b346103b75761039736600461030d565b6103b36103a2611b2a565b6103aa610252565b9182918261036f565b0390f35b610258565b90565b6103c8816103bc565b036103cf57565b5f80fd5b905035906103e0826103bf565b565b906020828203126103fb576103f8915f016103d3565b90565b61025c565b60018060a01b031690565b61041490610400565b90565b6104209061040b565b9052565b9190610437905f60208501940190610417565b565b346104695761046561045461044f3660046103e2565b611b4c565b61045c610252565b91829182610424565b0390f35b610258565b6104778161040b565b0361047e57565b5f80fd5b9050359061048f8261046e565b565b91906040838203126104b957806104ad6104b6925f8601610482565b936020016103d3565b90565b61025c565b5f0190565b346104f2576104dc6104d6366004610491565b90611b6b565b6104e4610252565b806104ee816104be565b0390f35b610258565b5f80fd5b5f80fd5b5f80fd5b909182601f8301121561053d5781359167ffffffffffffffff831161053857602001926001830284011161053357565b6104ff565b6104fb565b6104f7565b61ffff1690565b61055281610542565b0361055957565b5f80fd5b9050359061056a82610549565b565b916080838303126105fc575f83013567ffffffffffffffff81116105f75782610596918501610503565b929093602081013567ffffffffffffffff81116105f257826105b9918301610503565b929093604083013567ffffffffffffffff81116105ed576105df836105ea928601610503565b93909460600161055d565b90565b610260565b610260565b610260565b61025c565b61060a906103bc565b9052565b9190610621905f60208501940190610601565b565b3461065a5761065661064561063936600461056c565b95949094939193612290565b61064d610252565b9182918261060e565b0390f35b610258565b90565b61066b8161065f565b0361067257565b5f80fd5b9050359061068382610662565b565b6bffffffffffffffffffffffff1690565b61069f81610685565b036106a657565b5f80fd5b905035906106b782610696565b565b909182601f830112156106f35781359167ffffffffffffffff83116106ee5760200192600183028401116106e957565b6104ff565b6104fb565b6104f7565b9060c0828203126107a35761070f815f8401610482565b92602083013567ffffffffffffffff811161079e5782610730918501610503565b929093604081013567ffffffffffffffff81116107995782610753918301610503565b9290936107638260608501610676565b9261077183608083016106aa565b9260a082013567ffffffffffffffff81116107945761079092016106b9565b9091565b610260565b610260565b610260565b61025c565b346107e0576107ca6107bb3660046106f8565b9796909695919594929461263d565b6107d2610252565b806107dc816104be565b0390f35b610258565b90565b6107fc6107f7610801926103bc565b6107e5565b6103bc565b90565b9061080e906107e8565b5f5260205260405f2090565b1c90565b90565b610831906008610836930261081a565b61081e565b90565b906108449154610821565b90565b61085d906108586005915f92610804565b610839565b90565b346108905761088c61087b6108763660046103e2565b610847565b610883610252565b9182918261060e565b0390f35b610258565b90916060828403126108ca576108c76108b0845f8501610482565b936108be8160208601610482565b936040016103d3565b90565b61025c565b346108fe576108e86108e2366004610895565b916127f6565b6108f0610252565b806108fa816104be565b0390f35b610258565b919060408382031261092b578061091f610928925f86016103d3565b936020016103d3565b90565b61025c565b91602061095192949361094a60408201965f830190610417565b0190610601565b565b346109855761096c610966366004610903565b90612918565b90610981610978610252565b92839283610930565b0390f35b610258565b5f80fd5b634e487b7160e01b5f52604160045260245ffd5b906109ac90610334565b810190811067ffffffffffffffff8211176109c657604052565b61098e565b906109de6109d7610252565b92836109a2565b565b67ffffffffffffffff81116109fe576109fa602091610334565b0190565b61098e565b90825f939282370152565b90929192610a23610a1e826109e0565b6109cb565b93818552602085019082840111610a3f57610a3d92610a03565b565b61098a565b9080601f83011215610a6257816020610a5f93359101610a0e565b90565b6104f7565b90602082820312610a97575f82013567ffffffffffffffff8111610a9257610a8f9201610a44565b90565b610260565b61025c565b905090565b610ac6610abd92602092610ab48161031c565b94858093610a9c565b93849101610329565b0190565b90565b610ad9610ade916103bc565b610aca565b9052565b610af2610af99160209493610aa1565b8092610acd565b0190565b610b11610b08610252565b92839283610ae2565b03902090565b610b2091610afd565b90565b60ff1690565b610b39906008610b3e930261081a565b610b23565b90565b90610b4c9154610b29565b90565b610b6590610b606003915f92610b17565b610b41565b90565b34610b9857610b94610b83610b7e366004610a67565b610b4f565b610b8b610252565b918291826102c3565b0390f35b610258565b90565b610bb4610baf610bb992610b9d565b6107e5565b6103bc565b90565b610bc76103e8610ba0565b90565b610bd2610bbc565b90565b34610c0557610be536600461030d565b610c01610bf0610bca565b610bf8610252565b9182918261060e565b0390f35b610258565b610c1e610c19610c2392610b9d565b6107e5565b610542565b90565b610c316103e8610c0a565b90565b610c3c610c26565b90565b610c4890610542565b9052565b9190610c5f905f60208501940190610c3f565b565b34610c9157610c7136600461030d565b610c8d610c7c610c34565b610c84610252565b91829182610c4c565b0390f35b610258565b34610cc557610caf610ca9366004610895565b916129fc565b610cb7610252565b80610cc1816104be565b0390f35b610258565b5190565b60209181520190565b60200190565b610ce6906103bc565b9052565b90610cf781602093610cdd565b0190565b60200190565b90610d1e610d18610d1184610cca565b8093610cce565b92610cd7565b905f5b818110610d2e5750505090565b909192610d47610d416001928651610cea565b94610cfb565b9101919091610d21565b5190565b60209181520190565b60200190565b610d6d9061040b565b9052565b90610d7e81602093610d64565b0190565b60200190565b90610da5610d9f610d9884610d51565b8093610d55565b92610d5e565b905f5b818110610db55750505090565b909192610dce610dc86001928651610d71565b94610d82565b9101919091610da8565b5190565b60209181520190565b60200190565b60209181520190565b610e13610e1c602093610e2193610e0a8161031c565b93848093610deb565b95869101610329565b610334565b0190565b90610e2f91610df4565b90565b60200190565b90610e4c610e4583610dd8565b8092610ddc565b9081610e5d60208302840194610de5565b925f915b838310610e7057505050505090565b90919293946020610e92610e8c83856001950387528951610e25565b97610e32565b9301930191939290610e61565b5190565b60209181520190565b60200190565b610ebb90610542565b9052565b90610ecc81602093610eb2565b0190565b60200190565b90610ef3610eed610ee684610e9f565b8093610ea3565b92610eac565b905f5b818110610f035750505090565b909192610f1c610f166001928651610ebf565b94610ed0565b9101919091610ef6565b9592610f9c94610f72610f8092610f64610f8e96610f558c610faa9e9c9860e08201915f818403910152610d01565b908c6020818403910152610d88565b908a820360408c0152610e38565b9088820360608a0152610e38565b908682036080880152610e38565b9084820360a0860152610ed6565b9160c0818403910152610ed6565b90565b34610fe457610fbd36600461030d565b610fe0610fc8612dca565b93610fd7979597939193610252565b97889788610f26565b0390f35b610258565b67ffffffffffffffff811161100757611003602091610334565b0190565b61098e565b9092919261102161101c82610fe9565b6109cb565b9381855260208501908284011161103d5761103b92610a03565b565b61098a565b9080601f830112156110605781602061105d9335910161100c565b90565b6104f7565b9190916040818403126110a55761107e835f8301610482565b92602082013567ffffffffffffffff81116110a05761109d9201611042565b90565b610260565b61025c565b6110be6110b8366004611065565b90613000565b6110c6610252565b806110d0816104be565b0390f35b6110dd9061065f565b9052565b91906110f4905f602085019401906110d4565b565b346111265761110636600461030d565b61112261111161307b565b611119610252565b918291826110e1565b0390f35b610258565b3461115b576111576111466111413660046103e2565b61308e565b61114e610252565b91829182610424565b0390f35b610258565b9060208282031261117957611176915f01610482565b90565b61025c565b346111ae576111aa611199611194366004611160565b6130b9565b6111a1610252565b9182918261060e565b0390f35b610258565b346111e1576111c336600461030d565b6111cb61314e565b6111d3610252565b806111dd816104be565b0390f35b610258565b90602082820312611217575f82013567ffffffffffffffff81116112125761120e9201610503565b9091565b610260565b61025c565b3461124d576112496112386112323660046111e6565b90613158565b611240610252565b918291826102c3565b0390f35b610258565b346112825761126236600461030d565b61127e61126d61317b565b611275610252565b91829182610424565b0390f35b610258565b346112b75761129736600461030d565b6112b36112a2613199565b6112aa610252565b9182918261036f565b0390f35b610258565b9060a082820312611327576112d3815f8401610482565b926112e182602085016103d3565b9260408101359167ffffffffffffffff8311611322576113068461131f948401610503565b9390946113168160608601610676565b936080016106aa565b90565b610260565b61025c565b346113615761134b61133f3660046112bc565b949390939291926131d8565b611353610252565b8061135d816104be565b0390f35b610258565b61136f816102b1565b0361137657565b5f80fd5b9050359061138782611366565b565b91906040838203126113b157806113a56113ae925f8601610482565b9360200161137a565b90565b61025c565b346113e5576113cf6113c9366004611389565b90613350565b6113d7610252565b806113e1816104be565b0390f35b610258565b611400906113fb6007915f92610804565b610839565b90565b346114335761142f61141e6114193660046103e2565b6113ea565b611426610252565b9182918261060e565b0390f35b610258565b9061144a611445836109e0565b6109cb565b918252565b5f7f352e302e30000000000000000000000000000000000000000000000000000000910152565b6114806005611438565b9061148d6020830161144f565b565b611497611476565b90565b6114a261148f565b90565b6114ad61149a565b90565b346114e0576114c036600461030d565b6114dc6114cb6114a5565b6114d3610252565b9182918261036f565b0390f35b610258565b60018060a01b031690565b611500906008611505930261081a565b6114e5565b90565b9061151391546114f0565b90565b6115205f80611508565b90565b61153761153261153c92610400565b6107e5565b610400565b90565b61154890611523565b90565b6115549061153f565b90565b6115609061154b565b9052565b9190611577905f60208501940190611557565b565b346115a95761158936600461030d565b6115a5611594611516565b61159c610252565b91829182611564565b0390f35b610258565b90608082820312611608576115c5815f8401610482565b926115d38260208501610482565b926115e183604083016103d3565b92606082013567ffffffffffffffff8111611603576116009201611042565b90565b610260565b61025c565b3461163f576116296116203660046115ae565b92919091613366565b611631610252565b8061163b816104be565b0390f35b610258565b346116725761165c611657366004611160565b6137a3565b611664610252565b8061166e816104be565b0390f35b610258565b346116a7576116a361169261168d3660046103e2565b6137ae565b61169a610252565b9182918261036f565b0390f35b610258565b91906040838203126116d457806116c86116d1925f8601610482565b93602001610482565b90565b61025c565b3461170a576117066116f56116ef3660046116ac565b906137ef565b6116fd610252565b918291826102c3565b0390f35b610258565b3461173d57611727611722366004611160565b613885565b61172f610252565b80611739816104be565b0390f35b610258565b9061174c906107e8565b5f5260205260405f2090565b90565b61176b906008611770930261081a565b611758565b90565b9061177e915461175b565b90565b611797906117926006915f92611742565b611773565b90565b346117ca576117c66117b56117b03660046103e2565b611781565b6117bd610252565b918291826110e1565b0390f35b610258565b9160808383031261182c576117e6825f8501610482565b9260208101359167ffffffffffffffff83116118275761180b84611824948401610503565b93909461181b8160408601610676565b936060016106aa565b90565b610260565b61025c565b346118635761184d6118443660046117cf565b93929092613890565b611855610252565b8061185f816104be565b0390f35b610258565b90611872906107e8565b5f5260205260405f2090565b5f1c90565b60018060a01b031690565b61189a61189f9161187e565b611883565b90565b6118ac905461188e565b90565b634e487b7160e01b5f52602260045260245ffd5b90600160028304921680156118e3575b60208310146118de57565b6118af565b91607f16916118d3565b5f5260205f2090565b905f9291805490611910611909836118c3565b8094610deb565b916001811690815f14611967575060011461192b575b505050565b61193891929394506118ed565b915f925b81841061194f57505001905f8080611926565b6001816020929593955484860152019101929061193c565b92949550505060ff19168252151560200201905f8080611926565b9061198c916118f6565b90565b906119af6119a89261199f610252565b93848092611982565b03836109a2565b565b61ffff1690565b6119c46119c99161187e565b6119b1565b90565b6119d690546119b8565b90565b60101c90565b6119eb6119f0916119d9565b6119b1565b90565b6119fd90546119df565b90565b611a0b906004611868565b90611a175f83016118a2565b91611a246001820161198f565b91611a316002830161198f565b91611a3e6003820161198f565b91611a566004611a4f8185016119cc565b93016119f3565b90565b91611abe95979694611a9e60a095611a90611ab795611aac95611a8360c08a01925f8b0190610417565b88820360208a015261033e565b90868203604088015261033e565b90848203606086015261033e565b966080830190610c3f565b0190610c3f565b565b34611af757611af3611adb611ad63660046103e2565b611a00565b92611aea969496929192610252565b96879687611a59565b0390f35b610258565b5f80fd5b5f90565b611b1690611b10611b00565b506138ec565b90565b606090565b611b279061198f565b90565b611b32611b19565b50611b455f611b3f61392c565b01611b1e565b90565b5f90565b611b6890611b58611b48565b50611b6281613950565b506139bc565b90565b90611b7f9190611b796139e4565b916139f1565b565b5f90565b91565b5090565b90565b611ba3611b9e611ba892611b8c565b6107e5565b6103bc565b90565b611bbf611bba611bc492611b8c565b6107e5565b610542565b90565b611bd3611bd89161187e565b61081e565b90565b611be59054611bc7565b90565b634e487b7160e01b5f52601160045260245ffd5b611c05906103bc565b5f198114611c135760010190565b611be8565b5f1b90565b90611c295f1991611c18565b9181191691161790565b90565b90611c4b611c46611c52926107e8565b611c33565b8254611c1d565b9055565b67ffffffffffffffff8111611c6e5760208091020190565b61098e565b90611c85611c8083611c56565b6109cb565b918252565b369037565b90611cb4611c9c83611c73565b92602080611caa8693611c56565b9201910390611c8a565b565b611cc060e06109cb565b90565b90611ccd9061040b565b9052565b611cdc913691610a0e565b90565b52565b90611cec90610542565b9052565b52565b611cfd905161040b565b90565b90611d1160018060a01b0391611c18565b9181191691161790565b611d249061153f565b90565b90565b90611d3f611d3a611d4692611d1b565b611d27565b8254611d00565b9055565b5190565b601f602091010490565b1b90565b91906008611d77910291611d715f1984611d58565b92611d58565b9181191691161790565b9190611d97611d92611d9f936107e8565b611c33565b908354611d5c565b9055565b611db591611daf611b81565b91611d81565b565b5b818110611dc3575050565b80611dd05f600193611da3565b01611db8565b9190601f8111611de6575b505050565b611df2611e17936118ed565b906020611dfe84611d4e565b83019310611e1f575b611e1090611d4e565b0190611db7565b5f8080611de1565b9150611e1081929050611e07565b90611e3d905f199060080261081a565b191690565b81611e4c91611e2d565b906002021790565b90611e5e8161031c565b9067ffffffffffffffff8211611f1e57611e8282611e7c85546118c3565b85611dd6565b602090601f8311600114611eb657918091611ea5935f92611eaa575b5050611e42565b90555b565b90915001515f80611e9e565b601f19831691611ec5856118ed565b925f5b818110611f0657509160029391856001969410611eec575b50505002019055611ea8565b611efc910151601f841690611e2d565b90555f8080611ee0565b91936020600181928787015181550195019201611ec8565b61098e565b90611f2d91611e54565b565b611f399051610542565b90565b90611f4961ffff91611c18565b9181191691161790565b611f67611f62611f6c92610542565b6107e5565b610542565b90565b90565b90611f87611f82611f8e92611f53565b611f6f565b8254611f3c565b9055565b60101b90565b90611fa763ffff000091611f92565b9181191691161790565b90611fc6611fc1611fcd92611f53565b611f6f565b8254611f98565b9055565b5190565b5490565b611fe8611fee919392936103bc565b926103bc565b91611ffa8382026103bc565b92818404149015171561200957565b611be8565b600190818003010490565b5f5260205f2090565b5b81811061202e575050565b8061203b5f600193611da3565b01612023565b9091828110612050575b505050565b61206e6120686120626120799561200e565b9261200e565b92612019565b918201910190612022565b5f808061204b565b906801000000000000000081116120aa578161209f6120a893611fd5565b90828155612041565b565b61098e565b6120b990516103bc565b90565b6120c582610cca565b9167ffffffffffffffff8311612128576120f36120ed6001926120e88686612081565b610cd7565b92612019565b9204915f5b8381106121055750505050565b600190602061211b612116866120af565b611c33565b94019381840155016120f8565b61098e565b90612137916120bc565b565b906121e160c060056121e79461215c5f82016121565f8801611cf3565b90611d2a565b6121756001820161216f60208801611d4a565b90611f23565b61218e6002820161218860408801611d4a565b90611f23565b6121a7600382016121a160608801611d4a565b90611f23565b6121c0600482016121ba60808801611f2f565b90611f72565b6121d9600482016121d360a08801611f2f565b90611fb1565b019201611fd1565b9061212d565b565b906121f391612139565b565b919061220f816122088161221495610320565b8095610a03565b610334565b0190565b61222c61222761223192610542565b6107e5565b6103bc565b90565b61223d90612218565b9052565b979694916122869360609561226a8b6122789461228e9b9660808301925f8185039101526121f5565b918b830360208d01526121f5565b9188830360408a01526121f5565b940190612234565b565b93949592919061229e611b81565b506122b36122ad868390611b85565b90611b88565b6122c56122bf5f611b8f565b916103bc565b14801561249e575b61248257836122e46122de5f611bab565b91610542565b1461246657836123036122fd6122f8610c26565b610542565b91610542565b1161244a576123126002611bdb565b61231b81611bfc565b612326906002611c36565b96338683908587908b9086908b935f955f61234090611b8f565b61234990611c8f565b97612352611cb6565b995f8b019061236091611cc3565b61236991611cd1565b602089019061237791611cdf565b61238091611cd1565b604087019061238e91611cdf565b61239791611cd1565b60608501906123a591611cdf565b60808401906123b391611ce2565b6123bc90611bab565b60a08301906123ca91611ce2565b60c08201906123d891611cf0565b6004896123e491611868565b906123ee916121e9565b87943396929394979190917f5e4b3a0fb63342b938f4f873f16127a2687698a0eb8c0eba5e470b32bba9d85b96612424906107e8565b9761242e90611d1b565b98612437610252565b9687966124449688612241565b0390a390565b5f6316bdde1f60e31b815280612462600482016104be565b0390fd5b5f6301e3c13b60e21b81528061247e600482016104be565b0390fd5b5f633d37068d60e11b81528061249a600482016104be565b0390fd5b506124b36124ad838590611b85565b90611b88565b6124c56124bf5f611b8f565b916103bc565b146122cd565b9091826124db816124e293610a9c565b8093610a03565b0190565b6124f790602094936124fe936124cb565b8092610acd565b0190565b909161251990612510610252565b938493846124e6565b03902090565b909161252a92612502565b90565b61253961253e9161187e565b610b23565b90565b61254b905461252d565b90565b61256261255d61256792610685565b6107e5565b6103bc565b90565b6125739061065f565b90565b61257f9061187e565b90565b9061259761259261259e9261256a565b612576565b8254611c1d565b9055565b906125ae60ff91611c18565b9181191691161790565b6125c1906102b1565b90565b90565b906125dc6125d76125e3926125b8565b6125c4565b82546125a2565b9055565b6125f090610685565b9052565b9160609361263b9698979561261b612634946126299460808801918883035f8a01526121f5565b9185830360208701526121f5565b9660408301906110d4565b01906125e7565b565b949095969192939761265a612655600389879161251f565b612541565b612780578761267861267261266d610bbc565b6103bc565b9161254e565b116127645761275f926126919187918987919293613acb565b6126a361269e6001611bdb565b611bfc565b6126ae816001611c36565b946126ba818790613be3565b6126cf866126c9878c90611cd1565b90613c0f565b6126e4826126df60068990611742565b612582565b6126fb60016126f660038a889161251f565b6125c7565b61270786828a91613d99565b8095969394989190979161274d6127476127417fa070a1c2e676dbcadfab71a2357b2423de00020d93af644115c7ea4959da267c99611d1b565b996107e8565b99611d1b565b99612756610252565b968796876125f4565b0390a4565b5f630e78426f60e21b81528061277c600482016104be565b0390fd5b5f633503573760e21b815280612798600482016104be565b0390fd5b6127b06127ab6127b592611b8c565b6107e5565b610400565b90565b6127c19061279c565b90565b6040906127ed6127f494969593966127e360608401985f850190610417565b6020830190610601565b0190610417565b565b91908061281361280d6128085f6127b8565b61040b565b9161040b565b1461286a5761282b90826128256139e4565b91613e8f565b918261283f6128398361040b565b9161040b565b0361284957505050565b6128669091925f9384936364283d7b60e01b8552600485016127c4565b0390fd5b61288d6128765f6127b8565b5f918291633250574960e11b835260048301610424565b0390fd5b9061289b906107e8565b5f5260205260405f2090565b90565b60a01c90565b6bffffffffffffffffffffffff1690565b6128cd6128d2916128aa565b6128b0565b90565b6128df90546128c1565b90565b634e487b7160e01b5f52601260045260245ffd5b612902612908916103bc565b916103bc565b908115612913570490565b6128e2565b919091612923611b48565b5061292c611b81565b5061294a61294561293b61401e565b9260018401612891565b6128a7565b926129615f61295a8187016118a2565b95016128d5565b918461297d6129776129725f6127b8565b61040b565b9161040b565b146129b4575b506129b19161299561299b929161254e565b90611fd9565b6129ab6129a6614065565b61254e565b906128f6565b90565b93506129b1915061299b906129956129dc5f806129d481808b01016118a2565b9801016128d5565b93505090612983565b6129ee5f611438565b90565b6129f96129e5565b90565b91612a109291612a0a6129f1565b92613366565b565b606090565b606090565b606090565b606090565b90565b612a3d612a38612a4292612a26565b6107e5565b6103bc565b90565b612a54612a5a919392936103bc565b926103bc565b8203918211612a6557565b611be8565b67ffffffffffffffff8111612a825760208091020190565b61098e565b90612a99612a9483612a6a565b6109cb565b918252565b369037565b90612ac8612ab083612a87565b92602080612abe8693612a6a565b9201910390612a9e565b565b67ffffffffffffffff8111612ae25760208091020190565b61098e565b90612af9612af483612aca565b6109cb565b918252565b606090565b5f5b828110612b1157505050565b602090612b1c612afe565b8184015201612b05565b90612b4b612b3383612ae7565b92602080612b418693612aca565b9201910390612b03565b565b67ffffffffffffffff8111612b655760208091020190565b61098e565b90612b7c612b7783612b4d565b6109cb565b918252565b369037565b90612bab612b9383612b6a565b92602080612ba18693612b4d565b9201910390612b81565b565b6001612bb991016103bc565b90565b60209181520190565b612bcf9054611bc7565b90565b60010190565b90612bf5612bef612be884611fd5565b8093612bbc565b92612019565b905f5b818110612c055750505090565b909192612c25612c1f600192612c1a87612bc5565b610cea565b94612bd2565b9101919091612bf8565b90612c3991612bd8565b90565b90612c5c612c5592612c4c610252565b93848092612c2f565b03836109a2565b565b612c6860e06109cb565b90565b90612d1a612d116005612c7c612c5e565b94612c93612c8b5f83016118a2565b5f8801611cc3565b612cab612ca26001830161198f565b60208801611cdf565b612cc3612cba6002830161198f565b60408801611cdf565b612cdb612cd26003830161198f565b60608801611cdf565b612cf3612cea600483016119cc565b60808801611ce2565b612d0b612d02600483016119f3565b60a08801611ce2565b01612c3c565b60c08401611cf0565b565b612d2590612c6b565b90565b634e487b7160e01b5f52603260045260245ffd5b90612d4682610cca565b811015612d57576020809102010190565b612d28565b90612d66906103bc565b9052565b90612d7482610d51565b811015612d85576020809102010190565b612d28565b90612d9482610dd8565b811015612da5576020809102010190565b612d28565b90612db482610e9f565b811015612dc5576020809102010190565b612d28565b612dd2612a12565b50612ddb612a17565b50612de4612a1c565b50612ded612a1c565b50612df6612a1c565b50612dff612a21565b50612e08612a21565b50612e26612e166002611bdb565b612e206001612a29565b90612a45565b612e2f81611c8f565b612e3882612aa3565b612e4183612b26565b92612e4b81612b26565b612e5482612b26565b90612e67612e6184612b86565b93612b86565b95612e726001612a29565b5b80612e8f612e89612e846002611bdb565b6103bc565b916103bc565b1015612fcb57612ee090612ead612ea860048390611868565b612d1c565b88612eb95f8301611cf3565b612ed3612ecd612ec85f6127b8565b61040b565b9161040b565b03612ee5575b5050612bad565b612e73565b612fbf612fb660a0612fc494612f1a612f0888612f026001612a29565b90612a45565b95612f1589889092612d3c565b612d5c565b612f398d612f34612f2c5f8501611cf3565b889092612d6a565b611cc3565b612f5460208201518a8791612f4e8383612d8a565b52612d8a565b5150612f7160408201518b8791612f6b8383612d8a565b52612d8a565b5150612f8e60608201518c8791612f888383612d8a565b52612d8a565b5150612fb08c612fab612fa360808501611f2f565b889092612daa565b611ce2565b01611f2f565b8c929092612daa565b611ce2565b5f88612ed9565b50949695909395929192565b90612fe991612fe4614088565b612feb565b565b90612ffe91612ff98161413a565b614196565b565b9061300a91612fd7565b565b5f90565b6130219061301c614294565b61306f565b90565b90565b61303b61303661304092613024565b611c18565b61065f565b90565b61306c7f360894a13ba1a3210667c828492db98dca3e2076cc3735a920a3ca505d382bbc613027565b90565b50613078613043565b90565b61308b61308661300c565b613010565b90565b6130a09061309a611b48565b50613950565b90565b906130ad90611d1b565b5f5260205260405f2090565b6130c1611b81565b506130ca61392c565b816130e56130df6130da5f6127b8565b61040b565b9161040b565b14613102576130ff9160036130fa92016130a3565b611bdb565b90565b61312561310e5f6127b8565b5f9182916322718ad960e21b835260048301610424565b0390fd5b6131316142f2565b61313961313b565b565b61314c6131475f6127b8565b614340565b565b613156613129565b565b6131739061317892613168611b00565b50600391909161251f565b612541565b90565b613183611b48565b506131965f6131906143ac565b016118a2565b90565b6131a1611b19565b506131b560016131af61392c565b01611b1e565b90565b90565b6131c490610542565b61ffff81146131d35760010190565b611be8565b91929394816131ef6131e95f611b8f565b916103bc565b14801561332c575b6133105761320f61320a60048490611868565b6131b8565b933361322d6132276132225f89016118a2565b61040b565b9161040b565b036132f45761323e600486016119f3565b61325b613255613250600489016119cc565b610542565b91610542565b10156132d8578161327b613275613270610bbc565b6103bc565b9161254e565b116132bc576132ba966004966132a295949290919261329b5f89016118a2565b9495614482565b016132b46132af826119f3565b6131bb565b90611fb1565b565b5f630e78426f60e21b8152806132d4600482016104be565b0390fd5b5f63072423b760e51b8152806132f0600482016104be565b0390fd5b5f6318cc477f60e21b81528061330c600482016104be565b0390fd5b5f63ba868eeb60e01b815280613328600482016104be565b0390fd5b508161334961334361333e6002611bdb565b6103bc565b916103bc565b10156131f7565b6133649161335c6139e4565b9190916145e9565b565b9161338a9391613378848284916127f6565b6133806139e4565b93909192936147b8565b565b60401c90565b61339e6133a39161338c565b610b23565b90565b6133b09054613392565b90565b67ffffffffffffffff1690565b6133cc6133d19161187e565b6133b3565b90565b6133de90546133c0565b90565b67ffffffffffffffff1690565b6134026133fd61340792611b8c565b6107e5565b6133e1565b90565b61341e61341961342392612a26565b6107e5565b6133e1565b90565b61342f9061153f565b90565b9061344567ffffffffffffffff91611c18565b9181191691161790565b61346361345e613468926133e1565b6107e5565b6133e1565b90565b90565b9061348361347e61348a9261344f565b61346b565b8254613432565b9055565b60401b90565b906134a868ff00000000000000009161348e565b9181191691161790565b906134c76134c26134ce926125b8565b6125c4565b8254613494565b9055565b6134db9061340a565b9052565b91906134f2905f602085019401906134d2565b565b6134fc61490c565b9061351161350b5f84016133a6565b156102b1565b9061351d5f84016133d4565b8061353061352a5f6133ee565b916133e1565b148061364a575b9061354b613545600161340a565b916133e1565b1480613622575b61355d9091156102b1565b9081613611575b506135f55761358d9061358261357a600161340a565b5f860161346e565b826135e3575b61372e565b613595575b50565b6135a2905f8091016134b2565b60016135da7fc7f505b2f371ae2175ee4913f4499e1f2633a7b5936321eed1cdaeb6115181d2916135d1610252565b918291826134df565b0390a15f613592565b6135f060015f86016134b2565b613588565b5f63f92ee8a960e01b81528061360d600482016104be565b0390fd5b61361c9150156102b1565b5f613564565b5061355d61362f30613426565b3b61364261363c5f611b8f565b916103bc565b149050613552565b5082613537565b5f7f5665727469784e46540000000000000000000000000000000000000000000000910152565b6136826009611438565b9061368f60208301613651565b565b613699613678565b90565b5f7f564e465400000000000000000000000000000000000000000000000000000000910152565b6136cd6004611438565b906136da6020830161369c565b565b6136e46136c3565b90565b6136f090611523565b90565b6136fc906136e7565b90565b613708906136e7565b90565b90565b9061372361371e61372a926136ff565b61370b565b8254611d00565b9055565b61379b6137a19161374e613740613691565b6137486136dc565b90614937565b61375661494d565b61375e614961565b61376733614989565b61376f61499e565b61378261377b5f611b8f565b6001611c36565b61379661378f6001612a29565b6002611c36565b6136f3565b5f61370e565b565b6137ac906134f4565b565b6137c0906137ba611b19565b506149ef565b90565b906137cd90611d1b565b5f5260205260405f2090565b906137e390611d1b565b5f5260205260405f2090565b61381d9161381361381892613802611b00565b50600561380d61392c565b016137c3565b6137d9565b612541565b90565b6138319061382c6142f2565b613833565b565b8061384e6138486138435f6127b8565b61040b565b9161040b565b1461385e5761385c90614340565b565b61388161386a5f6127b8565b5f918291631e4fbdf760e01b835260048301610424565b0390fd5b61388e90613820565b565b93919092826138ae6138a86138a3610bbc565b6103bc565b9161254e565b116138d0576138ce94915f949091926138c8339596611b8f565b90614482565b565b5f630e78426f60e21b8152806138e8600482016104be565b0390fd5b6138f4611b00565b508061390f61390963152a902d60e11b610264565b91610264565b1490811561391c575b5090565b6139269150614ac6565b5f613918565b7f80bb2b638cc20bc4d0a60d66940f3ab4a00c1d7b313497ca82fb0b4ab007930090565b613958611b48565b5061396281614b06565b908161397e6139786139735f6127b8565b61040b565b9161040b565b14613987575090565b6139a2905f918291637e27328960e01b83526004830161060e565b0390fd5b906139b0906107e8565b5f5260205260405f2090565b6139dc6139e1916139cb611b48565b5060046139d661392c565b016139a6565b6118a2565b90565b6139ec611b48565b503390565b916139ff9291600192614b2e565b565b613a0d613a129161187e565b6114e5565b90565b613a1f9054613a01565b90565b60e01b90565b90505190613a358261046e565b565b90602082820312613a5057613a4d915f01613a28565b90565b61025c565b613a5d610252565b3d5f823e3d90fd5b60601b90565b613a7490613a65565b90565b613a8090613a6b565b90565b613a8f613a949161040b565b613a77565b9052565b80613aa9601492613ab09694613a83565b01916124cb565b90565b60200190565b5190565b613ac891369161100c565b90565b939092613afb936020613ae5613ae05f613a15565b61154b565b6381b78a0090613af3610252565b978892613a22565b82528180613b0b600482016104be565b03915afa928315613bde57613b75613b8795613b5d613b7b94613b4e613b8198613b8d9b5f91613bb0575b509b9193613b42610252565b94859360208501613a98565b602082018103825203826109a2565b613b6f613b6982613ab9565b91613ab3565b20614c89565b92613abd565b90614cbf565b9261040b565b9161040b565b03613b9457565b5f63668cb72560e01b815280613bac600482016104be565b0390fd5b613bd1915060203d8111613bd7575b613bc981836109a2565b810190613a37565b5f613b36565b503d613bbf565b613a55565b90613bf79190613bf16129f1565b91614ce1565b565b90613c03906107e8565b5f5260205260405f2090565b90613c2d90613c285f613c20614d0f565b018490613bf9565b611f23565b613c637ff8e1a15aba9398e019f0b49df1a4fde98ee17ae345cb5f6b5e2c27f5033e8ce791613c5a610252565b9182918261060e565b0390a1565b613c719061254e565b9052565b604090613c9e613ca59496959396613c9460608401985f850190610601565b6020830190613c68565b0190610601565b565b916020613cc8929493613cc160408201965f830190610601565b0190610417565b565b613cd460406109cb565b90565b90613ce190610685565b9052565b613cef9051610685565b90565b60a01b90565b90613d126bffffffffffffffffffffffff60a01b91613cf2565b9181191691161790565b613d30613d2b613d3592610685565b6107e5565b610685565b90565b90565b90613d50613d4b613d5792613d1c565b613d38565b8254613cf8565b9055565b90613d8560205f613d8b94613d7d828201613d77848801611cf3565b90611d2a565b019201613ce5565b90613d3b565b565b90613d9791613d5b565b565b929190613da461401e565b90613db5613db0614065565b61254e565b83613dc8613dc2836103bc565b9161254e565b11613e51575080613de9613de3613dde5f6127b8565b61040b565b9161040b565b14613e2857936001613e2192613e1b613e26969795613e12613e09613cca565b975f8901611cc3565b60208701613cd7565b01612891565b613d8d565b565b84613e325f6127b8565b90613e4d5f928392634b4f842960e11b845260048401613ca7565b0390fd5b83613e6f8791925f93849363dfd1fc1b60e01b855260048501613c75565b0390fd5b90613e7e91036103bc565b90565b90613e8c91016103bc565b90565b90613e98611b48565b50613f26613ea461392c565b613ead83614b06565b9480613ec9613ec3613ebe5f6127b8565b61040b565b9161040b565b0361400b575b5084613eeb613ee5613ee05f6127b8565b61040b565b9161040b565b03613fb5575b83613f0c613f06613f015f6127b8565b61040b565b9161040b565b03613f7d575b613f21600285920184906139a6565b611d2a565b8291613f64613f5e613f587fddf252ad1be2c89b69c2b068fc378daa952ba7f163c4a11628f55a4df523b3ef95611d1b565b92611d1b565b926107e8565b92613f6d610252565b80613f77816104be565b0390a490565b613fb0613f8a6001612a29565b613faa613f9b6003850188906130a3565b91613fa583611bdb565b613e81565b90611c36565b613f12565b613fd3613fc15f6127b8565b84613fcb5f6127b8565b905f92614b2e565b614006613fe06001612a29565b614000613ff16003850189906130a3565b91613ffb83611bdb565b613e73565b90611c36565b613ef1565b6140189086908591614d33565b5f613ecf565b7fdaedc9ab023613a7caf35e703657e986ccfad7e3eb0af93a2853f8d65dd86b0090565b5f90565b90565b61405d61405861406292614046565b6107e5565b610685565b90565b61406d614042565b50614079612710614049565b90565b6140859061153f565b90565b6140913061407c565b6140c36140bd7f000000000000000000000000000000000000000000000000000000000000000061040b565b9161040b565b1480156140ed575b6140d157565b5f63703e46dd60e11b8152806140e9600482016104be565b0390fd5b506140f6614daf565b6141286141227f000000000000000000000000000000000000000000000000000000000000000061040b565b9161040b565b14156140cb565b506141386142f2565b565b6141439061412f565b565b61414e90611523565b90565b61415a90614145565b90565b6141669061153f565b90565b9050519061417682610662565b565b906020828203126141915761418e915f01614169565b90565b61025c565b91906141c460206141ae6141a986614151565b61415d565b6352d1902d906141bc610252565b938492613a22565b825281806141d4600482016104be565b03915afa80915f92614264575b50155f146142155750509060016141f657505b565b614211905f918291634c9c8ce360e01b835260048301610424565b0390fd5b928361423061422a614225613043565b61065f565b9161065f565b0361424557614240929350614dd5565b6141f4565b614260845f918291632a87526960e21b8352600483016110e1565b0390fd5b61428691925060203d811161428d575b61427e81836109a2565b810190614178565b905f6141e1565b503d614274565b61429d3061407c565b6142cf6142c97f000000000000000000000000000000000000000000000000000000000000000061040b565b9161040b565b036142d657565b5f63703e46dd60e11b8152806142ee600482016104be565b0390fd5b6142fa61317b565b61431361430d6143086139e4565b61040b565b9161040b565b0361431a57565b61433c6143256139e4565b5f91829163118cdaa760e01b835260048301610424565b0390fd5b6143486143ac565b6143606143565f83016118a2565b915f849101611d2a565b9061439461438e7f8be0079c531659141344cd1fd0a4f28419497f9722a3daafe3b4186f6b6457e093611d1b565b91611d1b565b9161439d610252565b806143a7816104be565b0390a3565b7f9016d09d72d40fdae2fd8ceac6b6234c7706214fd39c1cd1e609a0528c19930090565b90565b5f5260205f2090565b5490565b6143e9816143dc565b821015614403576143fb6001916143d3565b910201905f90565b612d28565b90815491680100000000000000008310156144385782614430916001614436950181556143e0565b90611d81565b565b61098e565b906144809461446f614464614479936060969a99979a60808701918783035f8901526121f5565b9860208501906110d4565b6040830190610417565b01906125e7565b565b92909391949561458690614494611b81565b50856144a86144a25f611b8f565b916103bc565b115f146145c6576144bb60078790610804565b6144d66144cf6144ca83611bdb565b611bfc565b8092611c36565b945b6144e3818790613be3565b6144f8866144f28a8790611cd1565b90613c0f565b61450d8561450860068990611742565b612582565b614519868a8491613d99565b8661452c6145265f611b8f565b916103bc565b1161458b575b94959692939761457461456e6145687f2ed0e63d22dc25cb0ab433d70fad78bd57e33c6c7e2b4078c212c2568fd2005998611d1b565b986107e8565b986107e8565b9861457d610252565b9586958661443d565b0390a4565b6145a08761459b60058990610804565b611c36565b6145c16145ba60056145b460048b90611868565b016143d0565b8790614408565b614532565b6145d86145d36001611bdb565b611bfc565b6145e3816001611c36565b946144d8565b9190916145f461392c565b8361460f6146096146045f6127b8565b61040b565b9161040b565b14614686576146369061463161462a600586930185906137c3565b86906137d9565b6125c7565b91909161468161466f6146697f17307eab39ab6107e8899845ad3d59bd9653f200f220920489ca2b5937696c3193611d1b565b93611d1b565b93614678610252565b918291826102c3565b0390a3565b6146a1845f918291630b61174360e31b835260048301610424565b0390fd5b6146ae90611523565b90565b6146ba906146a5565b90565b6146c69061153f565b90565b905051906146d682610270565b565b906020828203126146f1576146ee915f016146c9565b90565b61025c565b60209181520190565b61471e61472760209361472c9361471581613ab9565b938480936146f6565b95869101610329565b610334565b0190565b909261476390614759614770969461474f60808601975f870190610417565b6020850190610417565b6040830190610601565b60608184039101526146ff565b90565b9061478561478083610fe9565b6109cb565b918252565b606090565b3d5f146147aa5761479f3d614773565b903d5f602084013e5b565b6147b261478a565b906147a8565b9193843b6147ce6147c85f611b8f565b916103bc565b116147db575b5050505050565b6148135f60209461481e6147f66147f18a6146b1565b6146bd565b9463150b7a02929698614807610252565b998a9889978896613a22565b865260048601614730565b03925af180915f926148dc575b50155f146148995750600161484657505b5f808080806147d4565b61484e61478f565b9061485882613ab9565b61486a6148645f611b8f565b916103bc565b145f146148905761488c905f918291633250574960e11b835260048301610424565b0390fd5b50805190602001fd5b6148b26148ac630a85bd0160e11b610264565b91610264565b036148bd575061483c565b6148d8905f918291633250574960e11b835260048301610424565b0390fd5b6148fe91925060203d8111614905575b6148f681836109a2565b8101906146d8565b905f61482b565b503d6148ec565b614914614ea9565b90565b9061492991614924614ebd565b61492b565b565b9061493591614f27565b565b9061494191614917565b565b61494b614ebd565b565b614955614943565b565b61495f614ebd565b565b614969614957565b565b61497c90614977614ebd565b61497e565b565b61498790614f98565b565b6149929061496b565b565b61499c614ebd565b565b6149a6614994565b565b90565b6149b9906149bf9392610aa1565b90610aa1565b90565b6149e192916149ed916149d3610252565b9485926020840192836149ab565b908103825203836109a2565b565b6149f7611b19565b50614a1e614a195f614a07614d0f565b614a1085613950565b50018390613bf9565b611b1e565b614a26614fae565b614a37614a32826149a8565b613ab9565b614a49614a435f611b8f565b916103bc565b14614a9157614a5f614a5a836149a8565b613ab9565b614a71614a6b5f611b8f565b916103bc565b11614a84575050614a8190614fc2565b90565b614a8e92506149c2565b90565b50905090565b90565b614aae614aa9614ab392614a97565b613a22565b610264565b90565b614ac36349064906614a9a565b90565b614ace611b00565b5080614ae9614ae3614ade614ab6565b610264565b91610264565b14908115614af6575b5090565b614b00915061502e565b5f614af2565b614b26614b2b91614b15611b48565b506002614b2061392c565b016139a6565b6118a2565b90565b9091614b3861392c565b93808015614c66575b614b61575b5050614b5f92916004614b5a9293016139a6565b611d2a565b565b614b6a84613950565b9180614b86614b80614b7b5f6127b8565b61040b565b9161040b565b141580614c4b575b80614c31575b614c125750614b5a92614b5f959492600492614bb7575b50925081939450614b46565b818490614bf6614bf0614bea7f8c5be1e5ebec7d5bd14f71427d1e84f3dd0314c0f7b2291e5b200ac8c7c3b92595611d1b565b92611d1b565b926107e8565b92614bff610252565b80614c09816104be565b0390a45f614bab565b614c2d905f91829163a9fbf51f60e01b835260048301610424565b0390fd5b50614c46614c408483906137ef565b156102b1565b614b94565b5082614c5f614c598361040b565b9161040b565b1415614b8e565b5081614c82614c7c614c775f6127b8565b61040b565b9161040b565b1415614b41565b614c9161300c565b507f19457468657265756d205369676e6564204d6573736167653a0a3332000000005f52601c52603c5f2090565b614cde91614cd591614ccf611b48565b506150d9565b909291926151c1565b90565b9091614d0d92614cf2838290615292565b614cfa6139e4565b92614d045f6127b8565b909192936147b8565b565b7f0542a41881ee128a365a727b282c86fa859579490b9bb45aab8503648c8e790090565b614d48614d4282848691615336565b156102b1565b614d5157505050565b614d6b614d65614d605f6127b8565b61040b565b9161040b565b145f14614d9157614d8d825f918291637e27328960e01b83526004830161060e565b0390fd5b614dab5f92839263177e802f60e01b845260048401610930565b0390fd5b614db7611b48565b50614dd25f614dcc614dc7613043565b6153d6565b016118a2565b90565b90614ddf826153d9565b81614e0a7fbc7cd75a20ee27fd9adebab32041f755214dbc6bffa90cc0225b39da2e5c2d3b91611d1b565b90614e13610252565b80614e1d816104be565b0390a2614e2981613ab9565b614e3b614e355f611b8f565b916103bc565b115f14614e4f57614e4b91615464565b505b565b5050614e5961542e565b614e4d565b90565b614e75614e70614e7a92614e5e565b611c18565b61065f565b90565b614ea67ff0c57e16840df040f15088dc2f81fe391c3923bec73e23a9662efc9c229c6a00614e61565b90565b614eb161300c565b50614eba614e7d565b90565b614ece614ec8615493565b156102b1565b614ed457565b5f631afcd79f60e31b815280614eec600482016104be565b0390fd5b90614f0291614efd614ebd565b614f04565b565b6001614f2592614f1e614f1561392c565b935f8501611f23565b9101611f23565b565b90614f3191614ef0565b565b614f4490614f3f614ebd565b614f46565b565b80614f61614f5b614f565f6127b8565b61040b565b9161040b565b14614f7157614f6f90614340565b565b614f94614f7d5f6127b8565b5f918291631e4fbdf760e01b835260048301610424565b0390fd5b614fa190614f33565b565b614fab6129e5565b90565b614fb6611b19565b50614fbf614fa3565b90565b614fca611b19565b50614fd481613950565b50614fdd614fae565b90614fef614fea836149a8565b613ab9565b615001614ffb5f611b8f565b916103bc565b115f1461501f5761501561501b929161552d565b906149c2565b5b90565b5050615029614fa3565b61501c565b615036611b00565b508061505161504b6380ac58cd60e01b610264565b91610264565b148015615075575b908115615065575b5090565b61506f91506155d6565b5f615061565b508061509061508a635b5e139f60e01b610264565b91610264565b14615059565b5f90565b90565b6150b16150ac6150b69261509a565b6107e5565b6103bc565b90565b6150cd6150c86150d2926103bc565b611c18565b61065f565b90565b5f90565b9190916150e4611b48565b506150ed615096565b506150f661300c565b5061510083613ab9565b61511361510d604161509d565b916103bc565b145f1461515a57615153919261512761300c565b5061513061300c565b506151396150d5565b506020810151606060408301519201515f1a909192615688565b9192909190565b506151645f6127b8565b90615178615173600294613ab9565b6150b9565b91929190565b634e487b7160e01b5f52602160045260245ffd5b6004111561519c57565b61517e565b906151ab82615192565b565b6151b96151be9161187e565b6107e8565b90565b806151d46151ce5f6151a1565b916151a1565b145f146151df575050565b806151f36151ed60016151a1565b916151a1565b145f14615216575f63f645eedf60e01b815280615212600482016104be565b0390fd5b8061522a61522460026151a1565b916151a1565b145f146152585761525461523d836151ad565b5f91829163fce698f760e01b83526004830161060e565b0390fd5b61526b61526560036151a1565b916151a1565b146152735750565b61528e905f9182916335e2f38360e21b8352600483016110e1565b0390fd5b90816152ae6152a86152a35f6127b8565b61040b565b9161040b565b1461530f576152c791906152c15f6127b8565b91613e8f565b6152e16152db6152d65f6127b8565b61040b565b9161040b565b036152e857565b61530b6152f45f6127b8565b5f9182916339e3563760e11b835260048301610424565b0390fd5b61533261531b5f6127b8565b5f918291633250574960e11b835260048301610424565b0390fd5b9190615340611b00565b508061535c6153566153515f6127b8565b61040b565b9161040b565b1415928361536b575b50505090565b809192935061538261537c8461040b565b9161040b565b149081156153c4575b5091821561539e575b50505f8080615365565b6153bc9192506153b06153b6916139bc565b9261040b565b9161040b565b145f80615394565b6153d0915082906137ef565b5f61538b565b90565b803b6153ed6153e75f611b8f565b916103bc565b1461540f5761540d905f615407615402613043565b6153d6565b01611d2a565b565b61542a905f918291634c9c8ce360e01b835260048301610424565b0390fd5b3461544161543b5f611b8f565b916103bc565b1161544857565b5f63b398979f60e01b815280615460600482016104be565b0390fd5b5f806154909361547261478a565b508390602081019051915af49061548761478f565b90919091615784565b90565b61549b611b00565b506154ae5f6154a861490c565b016133a6565b90565b369037565b906154db6154c383611438565b926020806154d186936109e0565b92019103906154b1565b565b60016154e991036103bc565b90565b90565b6155036154fe615508926154ec565b6107e5565b6103bc565b90565b61551761551d916103bc565b916103bc565b908115615528570490565b6128e2565b615535611b19565b5061555261554282615979565b61554c6001612a29565b90613e81565b9061555c826154b6565b91615565611b81565b5060200182015b6001156155cf5761557f6155ab916154dd565b916f181899199a1a9b1b9c1cb0b131b232b360811b600a82061a83536155a5600a6154ef565b9061550b565b806155be6155b85f611b8f565b916103bc565b146155c9579061556c565b50505b90565b50506155cc565b6155de611b00565b506155f86155f26301ffc9a760e01b610264565b91610264565b1490565b90565b61561361560e615618926155fc565b6107e5565b6103bc565b90565b60ff1690565b61562a9061561b565b9052565b61566361566a9461565960609498979561564f608086019a5f8701906110d4565b6020850190615621565b60408301906110d4565b01906110d4565b565b61568061567b61568592611b8c565b611c18565b61065f565b90565b939293615693611b48565b5061569c615096565b506156a561300c565b506156af856151ad565b6156e16156db7f7fffffffffffffffffffffffffffffff5d576e7357a4501ddfe92f46681b20a06155ff565b916103bc565b1161576e5790615704602094955f949392936156fb610252565b9485948561562e565b838052039060015afa156157695761571c5f51611c18565b8061573761573161572c5f6127b8565b61040b565b9161040b565b1461574d575f916157475f61566c565b91929190565b506157575f6127b8565b6001916157635f61566c565b91929190565b613a55565b50505061577a5f6127b8565b9060039291929190565b906157989061579161478a565b50156102b1565b5f146157a45750615bda565b6157ad82613ab9565b6157bf6157b95f611b8f565b916103bc565b14806157ed575b6157ce575090565b6157e9905f918291639996b31560e01b835260048301610424565b0390fd5b50803b6158026157fc5f611b8f565b916103bc565b146157c6565b90565b61581f61581a61582492615808565b6107e5565b6103bc565b90565b90565b61583e61583961584392615827565b6107e5565b6103bc565b90565b90565b61585d61585861586292615846565b6107e5565b6103bc565b90565b90565b61587c61587761588192615865565b6107e5565b6103bc565b90565b90565b61589b6158966158a092615884565b6107e5565b6103bc565b90565b90565b6158ba6158b56158bf926158a3565b6107e5565b6103bc565b90565b90565b6158d96158d46158de926158c2565b6107e5565b6103bc565b90565b90565b6158f86158f36158fd926158e1565b6107e5565b6103bc565b90565b61591461590f61591992614046565b6107e5565b6103bc565b90565b90565b61593361592e6159389261591c565b6107e5565b6103bc565b90565b90565b61595261594d6159579261593b565b6107e5565b6103bc565b90565b90565b61597161596c6159769261595a565b6107e5565b6103bc565b90565b615981611b81565b5061598b5f611b8f565b90806159ba6159b47a184f03e93ff9f4daa797ed6e38ed64bf6a1f01000000000000000061580b565b916103bc565b1015615b92575b806159e26159dc6d04ee2d6d415b85acef8100000000615849565b916103bc565b1015615b57575b80615a036159fd662386f26fc10000615887565b916103bc565b1015615b23575b80615a21615a1b6305f5e1006158c5565b916103bc565b1015615af2575b80615a3d615a37612710615900565b916103bc565b1015615ac3575b80615a58615a52606461593e565b916103bc565b1015615a95575b615a72615a6c600a6154ef565b916103bc565b1015615a7c575b90565b615a9090615a8a6001612a29565b90613e81565b615a79565b615aac615abd91615aa6606461593e565b9061550b565b91615ab7600261595d565b90613e81565b90615a5f565b615adb615aec91615ad5612710615900565b9061550b565b91615ae6600461591f565b90613e81565b90615a44565b615b0c615b1d91615b066305f5e1006158c5565b9061550b565b91615b1760086158e4565b90613e81565b90615a28565b615b40615b5191615b3a662386f26fc10000615887565b9061550b565b91615b4b60106158a6565b90613e81565b90615a0a565b615b7b615b8c91615b756d04ee2d6d415b85acef8100000000615849565b9061550b565b91615b866020615868565b90613e81565b906159e9565b615bc3615bd491615bbd7a184f03e93ff9f4daa797ed6e38ed64bf6a1f01000000000000000061580b565b9061550b565b91615bce604061582a565b90613e81565b906159c1565b615be381613ab9565b615bf5615bef5f611b8f565b916103bc565b115f14615c0457805190602001fd5b5f63d6bda27560e01b815280615c1c600482016104be565b0390fdfea2646970667358221220adec23fc89d989e6c26388e3a4c9eb300ce982f61e8ce17502bf798acaddd15664736f6c634300081a0033","linkReferences":{}},"methodIdentifiers":{"MAX_COLLECTION_SIZE()":"4035cc6c","MAX_ROYALTY_BPS()":"3dca40e6","UPGRADE_INTERFACE_VERSION()":"ad3cb1cc","_nextCollectionTokenId(uint256)":"a2ffcfbd","approve(address,uint256)":"095ea7b3","balanceOf(address)":"70a08231","collections(uint256)":"fdbda0ec","createCollection(string,string,string,uint16)":"0b7aa38b","getApproved(uint256)":"081812fc","getCollections()":"46e63586","getUsedSocialMediaIds(string)":"71741471","governanceContract()":"b172b222","initialize(address)":"c4d66de8","isApprovedForAll(address,address)":"e985e9c5","metadataHashes(uint256)":"f9fd78c8","mintSingleNft(address,string,bytes32,uint96)":"fa370884","mintSocialMediaNft(address,string,string,bytes32,uint96,bytes)":"194ac033","mintToCollection(address,uint256,string,bytes32,uint96)":"96c388b8","name()":"06fdde03","owner()":"8da5cb5b","ownerOf(uint256)":"6352211e","proxiableUUID()":"52d1902d","renounceOwnership()":"715018a6","royaltyInfo(uint256,uint256)":"2a55205a","safeTransferFrom(address,address,uint256)":"42842e0e","safeTransferFrom(address,address,uint256,bytes)":"b88d4fde","setApprovalForAll(address,bool)":"a22cb465","supportsInterface(bytes4)":"01ffc9a7","symbol()":"95d89b41","tokenToCollection(uint256)":"195f78ae","tokenURI(uint256)":"c87b56dd","transferFrom(address,address,uint256)":"23b872dd","transferOwnership(address)":"f2fde38b","upgradeToAndCall(address,bytes)":"4f1ef286","usedSocialMediaIds(string)":"2b9681a2"},"id":72}